:1000000019C028C027C064C025C024C023C022C096
:1000100021C020C01FC01EC01DC01CC01BC01AC0F4
:1000200019C018C031C016C015C014C013C012C00A
:1000300011C010C011241FBECFEFD4E0DEBFCDBF72
:1000400021E0A0E0B1E001C01D92A330B207E1F7CA
:10005000C5D00BC1D5CF9093C5008093C40088E173
:100060008093C1008EE08093C20008959091C000FB
:1000700095FFFCCF8093C60008958091C00087FF54
:10008000FCCF8091C60008951F920F920FB60F9279
:1000900011242F933F934F935F936F937F938F938D
:1000A0009F93AF93BF93EF93FF93E7DFDFDFFF9162
:1000B000EF91BF91AF919F918F917F916F915F91E0
:1000C0004F913F912F910F900FBE0F901F90189559
:1000D0001F920F920FB60F9211242F933F934F93BD
:1000E0005F936F937F938F939F93AF93BF93EF93A0
:1000F000FF93809100018F30B0F020918400309107
:100100008500109285001092840040E050E06DE27E
:1001100071E381E090E06BD0309302012093010104
:100120001092000105C0809100018F5F8093000153
:10013000FF91EF91BF91AF919F918F917F916F91BF
:100140005F914F913F912F910F900FBE0F901F9095
:100150001895E4E6F0E080818F7B8083E0E7F0E0B3
:10016000808187608083539A14BCE0EBF0E080814B
:1001700080628083808183608083E1EBF0E0108285
:100180008081886080838081816080838AEF809312
:10019000B30080EF8093B4000895E4E6F0E080813E
:1001A000877F808310928000E1E8F0E010828081F8
:1001B0008360808310928500109284002198299A90
:1001C000F894EBE6F0E0808182608083E8E6F0E07E
:1001D0008081816080837894089508957894B9DF50
:1001E000DCDF809100018F3BE0F3289AFACF052EE7
:1001F00097FB16F400940FD057FD05D014D007FCE0
:1002000002D046F408C050954095309521953F4F57
:100210004F4F5F4F089590958095709561957F4FF2
:100220008F4F9F4F0895A1E21A2EAA1BBB1BFD0101
:100230000DC0AA1FBB1FEE1FFF1FA217B307E407C5
:10024000F50720F0A21BB30BE40BF50B661F771F1D
:10025000881F991F1A9469F76095709580959095FD
:0E0260009B01AC01BD01CF010895F894FFCFC2
:00000001FF
