:1000000019C028C027C062C025C024C023C022C098
:1000100021C020C01FC075C01DC01CC01BC01AC09D
:1000200019C018C02AC016C015C014C013C012C011
:1000300011C010C011241FBECFEFD4E0DEBFCDBF72
:1000400021E0A0E0B1E001C01D92A530B207E1F7C8
:10005000E3D011C2D5CF9093C5008093C40088E14E
:100060008093C1008EE08093C20008959091C000FB
:1000700095FFFCCF8093C60008951F920F920FB694
:100080000F9211242F933F934F935F936F937F931E
:100090008F939F93AF93BF93EF93FF938091C6008D
:1000A0008F3F19F480910401E1DFFF91EF91BF913F
:1000B000AF919F918F917F916F915F914F913F9100
:1000C0002F910F900FBE0F901F9018951F920F92B7
:1000D0000FB60F9211248F939F938BB180588BB9D9
:1000E0008091020190910301019690930301809306
:1000F0000201D89A9F918F910F900FBE0F901F9081
:1001000018951F920F920FB60F9211242F933F93C1
:100110004F935F936F937F938F939F93AF93BF930F
:10012000EF93FF938091020190910301809300016E
:10013000609100018CE3689FB0011124072E000C30
:10014000880B990B0CD120E030E040EC51E471D0E9
:10015000D8D060930401FF91EF91BF91AF919F912F
:100160008F917F916F915F914F913F912F910F9060
:100170000FBE0F901F901895E4E6F0E080818F7B12
:100180008083E0E7F0E0808187608083539A14BC2D
:10019000E0EBF0E0808180628083808183608083F7
:1001A000E1EBF0E010828081886080838081816053
:1001B00080838AEF8093B3008093B4000895E4E6CF
:1001C000F0E08081877F808310928000E1E8F0E09A
:1001D000108280818B60808310928500EFE6F0E0D2
:1001E00080818260808388E09DE390938900809382
:1001F000880084B1897F84B985B1866085B9F89417
:10020000EBE6F0E0808182608083E8E6F0E08081C8
:1002100081608083789408957894AEDFD0DF8091F8
:10022000020190910301892B11F4289AF8CF2898A4
:10023000F6CF0CD0E6C0DED040F0D5D030F021F4BF
:100240005F3F19F0C7C0511110C1CAC0EBD098F37D
:100250009923C9F35523B1F3951B550BBB27AA2747
:1002600062177307840738F09F5F5F4F220F331FB9
:10027000441FAA1FA9F333D00E2E3AF0E0E830D085
:1002800091505040E695001CCAF729D0FE2F27D088
:10029000660F771F881FBB1F261737074807AB0756
:1002A000B0E809F0BB0B802DBF01FF2793585F4FCB
:1002B0002AF09E3F510568F08DC0D7C05F3FECF338
:1002C000983EDCF3869577956795B795F7959F5F90
:1002D000C9F7880F911D9695879597F90895E1E0E4
:1002E000660F771F881FBB1F621773078407BA0743
:1002F00020F0621B730B840BBA0BEE1F88F7E0959E
:10030000089598D088F09F5790F0B92F9927B7514A
:10031000A0F0D1F0660F771F881F991F1AF0BA95C9
:10032000C9F712C0B13081F09FD0B1E008959CC0F0
:10033000672F782F8827B85F39F0B93FCCF38695BF
:1003400077956795B395D9F73EF49095809570951C
:1003500061957F4F8F4F9F4F0895E89409C097FB99
:100360003EF490958095709561957F4F8F4F9F4F8C
:100370009923A9F0F92F96E9BB279395F6958795D0
:1003800077956795B795F111F8CFFAF4BB0F11F493
:1003900060FF1BC06F5F7F4F8F4F9F4F16C088233A
:1003A00011F096E911C0772321F09EE8872F762F70
:1003B00005C0662371F096E8862F70E060E02AF0B1
:1003C0009A95660F771F881FDAF7880F969587959D
:1003D00097F9089597F99F6780E870E060E00895C5
:1003E0009FEF80EC089500240A941616170618064D
:1003F0000906089500240A94121613061406050629
:100400000895092E0394000C11F4882352F0BB0FB9
:1004100040F4BF2B11F460FF04C06F5F7F4F8F4F1C
:100420009F4F089557FD9058440F551F59F05F3F57
:1004300071F04795880F97FB991F61F09F3F79F006
:1004400087950895121613061406551FF2CF469588
:10045000F1DF08C0161617061806991FF1CF86950A
:100460007105610508940895E894BB2766277727EE
:0A047000CB0197F90895F894FFCF2F
:00000001FF
