:1000000019C033C032C0E3C030C02FC02EC02DC0D5
:100010002CC02BC02AC029C028C050C25AC125C03C
:1000200024C023C09BC021C020C01FC01EC01DC053
:100030001CC01BC011241FBECFEFD4E0DEBFCDBF5C
:1000400011E0A0E0B1E0E4EEF8E002C005900D920E
:10005000A231B107D9F721E0A2E1B1E001C01D92C0
:10006000AD32B207E1F771D03BC4CACF8F3F9105E3
:1000700009F054F499235CF48091160190911701D2
:10008000892B21F480E008958FEF089584E008958E
:10009000E5ECF0E02081922B9083E4ECF0E090819D
:1000A000892B8083E1ECF0E0808188618083E2EC41
:1000B000F0E0808186608083089581E084B988E8DB
:1000C0008AB982E085B9089581E08093680082E072
:1000D00080936B00E1ECF0E080818068808308957C
:1000E000E1E8F0E0808183608083EFE6F0E08081EA
:1000F0008160808384B5826084BD85B5856085BD5F
:10010000EEE6F0E08081826080838AE587BD089515
:10011000E0EBF0E080818062808380818360808377
:10012000E1EBF0E08081816080838FEF8093B40009
:10013000089580958093B4000895E0ECF0E09081FC
:1001400095FFFDCF8093C6000895B7DFBDDFC8DF00
:10015000DFDF89E190E09CDF7894FFCF1F920F9260
:100160000FB60F9211242F933F934F935F936F938A
:100170007F938F939F93AF93BF93EF93FF9395B12B
:1001800081E0892785B98091C6008F3F31F4809145
:100190002B0190912C01D1DF05C090E090931701C5
:1001A00080931601E0ECF0E080811082FF91EF91E6
:1001B000BF91AF919F918F917F916F915F914F917F
:1001C0003F912F910F900FBE0F901F9018951F9287
:1001D0000F920FB60F9211242F933F934F935F937B
:1001E0006F937F938F939F93AF93BF93EF93FF93FF
:1001F0001A9B5EC0E0911801E770F0E0A4E8B0E05F
:100200008D919C911197EE0FFF1FE75EFE4F91833A
:10021000808311961C921E928091180180FF43C02A
:1002200010922A011092290180E090E0FC01EE0F6B
:10023000FF1FE75EFE4F40815181209129013091DF
:100240002A01240F351F30932A012093290101969A
:100250008830910559F78091290190912A0195954F
:100260008795959587959595879590932A01809385
:1002700029016091290170912A01072E000C880B39
:10028000990B3FD29B01AC0160E077E988E197E4EC
:100290009DD120E030E040E050E433D1FFD17093B5
:1002A0002C0160932B01809118018F5F80931801BE
:1002B000FF91EF91BF91AF919F918F917F916F913E
:1002C0005F914F913F912F910F900FBE0F901F9014
:1002D00018951F920F920FB60F9211244F925F92B2
:1002E0006F927F928F929F92AF92BF92CF92DF9246
:1002F000EF92FF920F931F932F933F934F935F9330
:100300006F937F938F939F93AF93BF93EF93FF93DD
:10031000CF93DF93CDB7DEB76097DEBFCDBF6091DF
:1003200016017091170180912B0190912C01681B8F
:10033000790B072E000C880B990BE3D169837A8324
:100340008B839C8320910C0130910D0140910E0113
:1003500050910F018090120190901301A090140110
:10036000B09015015AD2A5019401CCD097D16D83DC
:100370007E838F8398878D819E8178DE80931001A4
:100380008091100180958093B40060910C01709170
:100390000D0180910E0190910F012091000130918B
:1003A00001014091020150910301409008015090D9
:1003B000090160900A0170900B01809012019090E9
:1003C0001301A0901401B0901501E0900001F0908D
:1003D00001010091020110910301ED86FE860F8755
:1003E000188BE0900401F090050100910601109136
:1003F0000701E986FA860B871C87F09010010DD261
:10040000A3019201E3D09B01AC0169817A818B81C8
:100410009C8103D2A501940175D02B013C01298553
:100420003A854B855C856D857E858F859889CED094
:100430004B015C016F2D70E00D811E81601B710B03
:10044000072E000C880B990B5CD19B01AC01C501F8
:10045000B401E3D19B01AC01C301B20153D060935D
:10046000120170931301809314019093150160960B
:100470000FB6F894DEBF0FBECDBFDF91CF91FF91D5
:10048000EF91BF91AF919F918F917F916F915F910C
:100490004F913F912F911F910F91FF90EF90DF901F
:1004A000CF90BF90AF909F908F907F906F905F9014
:1004B0004F900F900FBE0F901F9018951F920F92A4
:1004C0000FB60F9211248F93EF93FF93E0911801D1
:1004D000E770F0E0EE0FFF1FE75EFE4F1182108223
:1004E000809118018F5F8093180110922C01109257
:1004F0002B01FF91EF918F910F900FBE0F901F90E6
:1005000018955058BB27AA270ED04DC13ED130F0C8
:1005100043D120F031F49F3F11F41EF433C10EF4A7
:10052000E095E7FB29C1E92F4FD180F3BA176207A5
:1005300073078407950718F071F49EF567C10EF4F0
:10054000E0950B2EBA2FA02D0B01B90190010C01E3
:10055000CA01A0011124FF27591B99F0593F50F4FB
:10056000503E68F11A16F040A22F232F342F442753
:10057000585FF3CF469537952795A795F04053954B
:10058000C9F77EF41F16BA0B620B730B840BBAF01B
:100590009150A1F0FF0FBB1F661F771F881FC2F786
:1005A0000EC0BA0F621F731F841F48F4879577959A
:1005B0006795B795F7959E3F08F0B3CF9395880F51
:1005C00008F09927EE0F9795879508950CD0EBC00A
:1005D000E3D040F0DAD030F021F45F3F19F0CCC026
:1005E000511115C1CFC0F0D098F39923C9F3552309
:1005F000B1F3951B550BBB27AA2762177307840716
:1006000038F09F5F5F4F220F331F441FAA1FA9F3CB
:1006100033D00E2E3AF0E0E830D091505040E695BD
:10062000001CCAF729D0FE2F27D0660F771F881F1E
:10063000BB1F261737074807AB07B0E809F0BB0B0D
:10064000802DBF01FF2793585F4F2AF09E3F510531
:1006500068F092C0DCC05F3FECF3983EDCF3869517
:1006600077956795B795F7959F5FC9F7880F911DA7
:100670009695879597F90895E1E0660F771F881F93
:10068000BB1F621773078407BA0720F0621B730B46
:10069000840BBA0BEE1F88F7E095089504D0689498
:1006A000B111B5C0089598D088F09F5790F0B92F38
:1006B0009927B751A0F0D1F0660F771F881F991FB7
:1006C0001AF0BA95C9F712C0B13081F09FD0B1E0ED
:1006D00008959CC0672F782F8827B85F39F0B93FFD
:1006E000CCF3869577956795B395D9F73EF49095B9
:1006F0008095709561957F4F8F4F9F4F0895E89437
:1007000009C097FB3EF490958095709561957F4F59
:100710008F4F9F4F9923A9F0F92F96E9BB27939507
:10072000F695879577956795B795F111F8CFFAF417
:10073000BB0F11F460FF1BC06F5F7F4F8F4F9F4F48
:1007400016C0882311F096E911C0772321F09EE8A6
:10075000872F762F05C0662371F096E8862F70E00C
:1007600060E02AF09A95660F771F881FDAF7880FE6
:100770009695879597F9089597F99F6780E870E0B7
:1007800060E008959FEF80EC089500240A94161607
:10079000170618060906089500240A94121613066F
:1007A000140605060895092E0394000C11F48823FD
:1007B00052F0BB0F40F4BF2B11F460FF04C06F5F19
:1007C0007F4F8F4F9F4F089557FD9058440F551FEF
:1007D00059F05F3F71F04795880F97FB991F61F0C3
:1007E0009F3F79F087950895121613061406551F3A
:1007F000F2CF4695F1DF08C0161617061806991FA6
:10080000F1CF86957105610508940895E894BB279A
:1008100066277727CB0197F908950BD0C4CFB5DFB2
:1008200028F0BADF18F0952309F0A6CFABCF11243A
:10083000EECFCADFA0F3959FD1F3950F50E0551F7F
:10084000629FF001729FBB27F00DB11D639FAA2725
:10085000F00DB11DAA1F649F6627B00DA11D661F74
:10086000829F2227B00DA11D621F739FB00DA11D95
:10087000621F839FA00D611D221F749F3327A00D4F
:10088000611D231F849F600D211D822F762F6A2FEB
:1008900011249F5750408AF0E1F088234AF0EE0F70
:1008A000FF1FBB1F661F771F881F91505040A9F77D
:1008B0009E3F510570F060CFAACF5F3FECF3983EAA
:1008C000DCF3869577956795B795F795E7959F5FE4
:1008D000C1F7FE2B880F911D9695879597F908957E
:0408E000F894FFCFBA
:1008E400CDCCCC3D9A99993E9A99993E713D0A3F57
:0208F4003C00C6
:00000001FF
