:1000000019C028C027C068C025C024C023C022C092
:1000100021C020C01FC077C01DC01CC01BC01AC09B
:1000200019C018C017C016C015C014C013C012C024
:1000300011C010C011241FBECFEFD4E0DEBFCDBF72
:1000400021E0A0E0B1E001C01D92A530B207E1F7C8
:1000500032D0CDC1D5CF81E084B988E88AB982E0B9
:1000600085B9089581E08093680082E080936B00F9
:100070000895E1E8F0E088E0808389E09DE39093D3
:1000800089008093880082E080936F008081836084
:1000900080830895E0EBF0E080818062808380813E
:1000A00083608083E1EBF0E080818160808384E67F
:1000B0008093B4000895CFDFD5DFDBDFEBDF7894EA
:1000C00080910201873434F0809102018A3514F462
:1000D000289AF6CF2898F4CF1F920F920FB60F925E
:1000E00011248F939F9380910301909104010196B5
:1000F00090930401809303019F918F910F900FBE05
:100100000F901F9018951F920F920FB60F92112407
:100110002F933F934F935F936F937F938F939F930F
:10012000AF93BF93EF93FF938091030190910401EC
:10013000893E934014F05F9A01C05F98809103015B
:1001400090910401909301018093000110920401A9
:100150001092030160910001709101018CE3689F8E
:10016000B0011124072E000C880B990BB4D020E0AD
:1001700030E040E452E414D07BD060930201FF9160
:10018000EF91BF91AF919F918F917F916F915F910F
:100190004F913F912F910F900FBE0F901F90189588
:1001A0000CD0EBC0E3D040F0DAD030F021F45F3F68
:1001B00019F0CCC0511115C1CFC0F0D098F39923DC
:1001C000C9F35523B1F3951B550BBB27AA2762171B
:1001D0007307840738F09F5F5F4F220F331F441F60
:1001E000AA1FA9F333D00E2E3AF0E0E830D0915098
:1001F0005040E695001CCAF729D0FE2F27D0660F85
:10020000771F881FBB1F261737074807AB07B0E8C3
:1002100009F0BB0B802DBF01FF2793585F4F2AF0D9
:100220009E3F510568F092C0DCC05F3FECF3983E02
:10023000DCF3869577956795B795F7959F5FC9F736
:10024000880F911D9695879597F90895E1E0660FBF
:10025000771F881FBB1F621773078407BA0720F038
:10026000621B730B840BBA0BEE1F88F7E0950895A1
:1002700004D06894B111B5C0089598D088F09F5704
:1002800090F0B92F9927B751A0F0D1F0660F771FE2
:10029000881F991F1AF0BA95C9F712C0B13081F0C2
:1002A0009FD0B1E008959CC0672F782F8827B85F52
:1002B00039F0B93FCCF3869577956795B395D9F723
:1002C0003EF490958095709561957F4F8F4F9F4F2D
:1002D0000895E89409C097FB3EF490958095709539
:1002E00061957F4F8F4F9F4F9923A9F0F92F96E982
:1002F000BB279395F695879577956795B795F111F7
:10030000F8CFFAF4BB0F11F460FF1BC06F5F7F4F93
:100310008F4F9F4F16C0882311F096E911C07723A5
:1003200021F09EE8872F762F05C0662371F096E8AE
:10033000862F70E060E02AF09A95660F771F881F7D
:10034000DAF7880F9695879597F9089597F99F673B
:1003500080E870E060E008959FEF80EC089500244D
:100360000A941616170618060906089500240A941A
:1003700012161306140605060895092E0394000CA0
:1003800011F4882352F0BB0F40F4BF2B11F460FF2F
:1003900004C06F5F7F4F8F4F9F4F089557FD905858
:1003A000440F551F59F05F3F71F04795880F97FB39
:1003B000991F61F09F3F79F08795089512161306F3
:1003C0001406551FF2CF4695F1DF08C01616170622
:1003D0001806991FF1CF8695710561050894089557
:1003E000E894BB2766277727CB0197F90895F894FF
:0203F000FFCF3D
:00000001FF
