:1000000019C020C01FC01EC01DC01CC01BC01AC00C
:1000100019C019C017C016C015C014C013C012C033
:1000200011C010C00FC00EC00DC00CC00BC00AC064
:1000300009C008C011241FBECFEFD4E0DEBFCDBF82
:1000400014D02EC0DDCF1F920F920FB60F92112445
:100050008F939F9395B181E0892785B99F918F9167
:100060000F900FBE0F901F901895789480916400A8
:100070008F7B809364008091700087608093700014
:100080008091B0008C7C8093B0008091B100877328
:100090008093B1008091B10086608093B100FFCF62
:0400A000F894FFCF02
:00000001FF
